8=FIX.4.4|9=300|35=8|49=SENDER|56=TARGET|34=1|52=20231216-10:00:00|11=ORD001|37=EXEC001|17=TRD001|55=AAPL|54=1|150=F|39=2|44=150.00|38=100|14=100|151=0|31=150.00|32=100|453=3|448=PARTY1|447=D|452=1|448=PARTY2|447=D|452=3|448=PARTY3|447=D|452=11|10=000|
8=FIX.4.4|9=250|35=W|49=SENDER|56=TARGET|34=2|52=20231216-10:00:01|55=MSFT|268=3|269=0|270=380.00|271=100|269=1|270=380.50|271=50|269=2|270=379.75|271=200|10=000|
8=FIX.4.4|9=200|35=D|49=SENDER|56=TARGET|34=3|52=20231216-10:00:02|11=ORD002|55=TSLA|54=2|38=50|40=2|44=250.00|60=20231216-10:00:02|453=2|448=BROKER1|447=D|452=1|448=BROKER2|447=D|452=3|10=000|
8=FIX.4.4|9=350|35=8|49=SENDER|56=TARGET|34=4|52=20231216-10:00:03|11=ORD002|37=EXEC002|17=TRD002|55=TSLA|54=2|150=F|39=2|44=250.00|38=50|14=50|151=0|31=250.00|32=50|453=2|448=BROKER1|447=D|452=1|448=BROKER2|447=D|452=3|10=000|
8=FIX.4.4|9=400|35=W|49=SENDER|56=TARGET|34=5|52=20231216-10:00:04|55=GOOGL|268=5|269=0|270=140.00|271=100|269=0|270=139.95|271=50|269=1|270=140.10|271=75|269=1|270=140.15|271=25|269=2|270=139.90|271=150|10=000|
