8=FIX.4.4|9=178|35=D|49=SENDER|56=TARGET|34=1|52=20231215-10:30:00|11=ORDER123|21=1|55=AAPL|54=1|60=20231215-10:30:00|38=100|40=2|44=150.50|59=0|10=000|
8=FIX.4.4|9=195|35=8|49=TARGET|56=SENDER|34=2|52=20231215-10:30:01|37=EXEC001|11=ORDER123|17=TRADE001|150=F|39=2|55=AAPL|54=1|38=100|44=150.50|14=100|151=0|31=150.50|32=100|10=000|
8=FIX.4.4|9=160|35=D|49=SENDER|56=TARGET|34=3|52=20231215-10:31:00|11=ORDER456|21=1|55=MSFT|54=2|60=20231215-10:31:00|38=50|40=2|44=380.25|59=0|10=000|
8=FIX.4.4|9=180|35=8|49=TARGET|56=SENDER|34=4|52=20231215-10:31:01|37=EXEC002|11=ORDER456|17=TRADE002|150=F|39=2|55=MSFT|54=2|38=50|44=380.25|14=50|151=0|31=380.25|32=50|10=000|
